:100000000C945D000C941F0B0C944C0B0C9485000D
:100010000C9485000C9485000C9485000C9485004C
:100020000C9485000C9485000C9485000C9485003C
:100030000C9485000C9485000C9485000C9485002C
:100040000C94790B0C9485000C948F0D0C94850006
:100050000C9485000C9485000C9485000C9485000C
:100060000C9485000C948500000024272A000025AC
:10007000282B000023262904040404040404040299
:100080000202020202030303030303010204081035
:100090002040800102040810200102040810200002
:1000A0000000070002010000030406000000000039
:1000B00000000000A206E0099B0611241FBECFEF3E
:1000C000D4E0DEBFCDBF13E0A0E0B1E0E6E8FCE1A4
:1000D00002C005900D92AA37B107D9F714E0AAE73C
:1000E000B3E001C01D92A737B107E1F710E0C8EBFC
:1000F000D0E004C02297FE010E94320EC43BD1071B
:10010000C9F70E94D9090C94360E0C9400000F9385
:10011000FC0160834183228303830F910895089536
:10012000EF92FF920F931F93CF93DF93EC01162F63
:10013000042FF52EE22E888160E00E94870C8B81CF
:100140000E94D20C0197D9F31EBD0DB407FEFDCF5E
:100150008EB5802F9F2D9C01F90110E040E050E00A
:100160002E2D30E009C080818EBD0DB407FEFDCF7D
:100170001EB511934F5F5F4F42175307A4F3888159
:1001800061E00E94870C812FDF91CF911F910F9129
:10019000FF90EF9008950F931F93CF93DF93EC019F
:1001A000162F042F888160E00E94870C8B810E94AB
:1001B000D20C0197D9F31EBD0DB407FEFDCF8EB54D
:1001C0000EBD0DB407FEFDCF1EB5888161E00E9413
:1001D000870C812FDF91CF911F910F9108951F936D
:1001E000CF93DF93EC01162F888160E00E94870C8B
:1001F0008B810E94D20C0197D9F31EBD0DB407FE6E
:10020000FDCF1EB5888161E00E94870C812FDF91B0
:10021000CF911F9108950E94EF000895CF93DF932F
:10022000EC01888160E00E94870C81E090E00E94F0
:10023000210C888161E00E94870C89E290E00E9495
:10024000210C888160E00E94870C8B810E94D20C77
:100250000197D9F380E38EBD0DB407FEFDCF8EB5B7
:10026000888161E00E94870CDF91CF9108950F9300
:100270001F938C01FC01828161E00E94690CF801EE
:10028000838160E00E94690CF801818161E00E9435
:10029000690CF801808161E00E94690CF80180819D
:1002A00061E00E94870C80E58CBD8DB58EB51F91F5
:1002B0000F910895DF92EF92FF920F931F93CF93C8
:1002C000DF93F82FD62EE9019801D701461738F0B1
:1002D000862FF61708F48F2FD41648F004C0842F09
:1002E000F41708F48F2FFD1530F4ED2D05C0F41729
:1002F00010F4E42F01C0EF2FEC93EE2319F4D90191
:100300001C9215C06E2F70E08B01081B11098FEF36
:1003100090E0DC010A9FC0010B9F900D1A9F900D89
:1003200011240E94CC0DD9016C93662311F418821C
:100330003CC0EF1791F48D2D90E0841B91092BE2C6
:1003400030E0FC01E29FC001E39F900DF29F900D11
:100350001124B8010E94CC0D27C02F2F30E0ED15DD
:1003600099F4842F90E0821B930B2BE230E0AC01D8
:10037000429FC001439F900D529F900D1124B801E0
:100380000E94CC0D6B5A10C02D1931098BE290E000
:10039000DC012A9FC0012B9F900D3A9F900D1124E4
:1003A000B8010E94CC0D65556883DF91CF911F91F4
:1003B0000F91FF90EF90DF900895FC01EE5BFF4FEF
:1003C00080810895EF92FF920F931F93CF93DF9355
:1003D000DC01E2E4EE2EF12CE80EF91EE7012881A3
:1003E000AF5BBF4F8C91A154B040281711F48FEF31
:1003F00033C0822F90E0FC0153E0EE0FFF1F5A95AF
:10040000E1F7880F991FE80FF91FEA0FFB1F81E042
:10041000858340E050E087014F5F5F4FF801208106
:10042000822F90E0FC0133E0EE0FFF1F3A95E1F7D9
:10043000880F991FE80FF91FEA0FFB1FE40FF51F44
:10044000EB018991BE0185834930510529F72F5F62
:10045000F70120832150822FDF91CF911F910F91BF
:10046000FF90EF900895DC014115510599F1AE5BC5
:10047000BF4F8C91A254B040681760F5862F90E072
:10048000FC0123E0EE0FFF1F2A95E1F7880F991F6B
:10049000E80FF91FEA0FFB1F85818823D9F0862F0B
:1004A00090E0FC0133E0EE0FFF1F3A95E1F7880F73
:1004B000991FE80FF91F3696EA0FFB1FDA0120E0BB
:1004C00030E02F5F3F4F81918D9329303105C9F77F
:1004D00081E0089580E00895CF93DF93DC0120E070
:1004E00030E0EC01CF5BDF4F07C0119201968A30FC
:1004F0009105D9F72F5F3F4F888190E02817390782
:100500008CF4F901EE0FFF1FC90143E0880F991F1A
:100510004A95E1F7E80FF91F3596EA0FFB1F80E0D7
:1005200090E0E3CFAE5BBF4F1C92DF91CF91089577
:10053000CF92DF92EF92FF920F931F93CF93DF93AF
:10054000EC017B01DB0118968C91813109F071C0BF
:10055000CE5BDF4FC880C254D0406C2D70E08E015E
:1005600040E050E02AC0F8018581882311F1DA01CA
:10057000AA0FBB1FCA0123E0880F991F2A95E1F734
:10058000A80FB91F1696AC0FBD1F20E030E0DD2488
:10059000D394F701E20FF31F90812F5F3F4F8C91AF
:1005A0009813DD2411962930310599F7DD2009F0E3
:1005B00040C04F5F5F4F065F1F4F461757079CF2C3
:1005C000CF5BDF4F8881C154D040C81691F1FB0149
:1005D00003E0EE0FFF1F0A95E1F7660F771FE60FA6
:1005E000F71FEC0FFD1F81E08583B70120E030E0AD
:1005F0008E010E5B1F4F2F5F3F4FD8014C91842F10
:1006000090E0FC01B3E0EE0FFF1FBA95E1F7880F11
:10061000991FE80FF91FEC0FFD1FE20FF31FDB011D
:100620008D91BD0185832930310529F74F5FF80190
:100630004083DF91CF911F910F91FF90EF90DF905A
:10064000CF9008959F92AF92BF92CF92DF92EF9298
:10065000FF920F931F93DF93CF93CDB7DEB72F9702
:100660000FB6F894DEBF0FBECDBF6C01162FB42EAF
:10067000A22E902E22E430E0C20ED31EF60180811D
:100680002EEB3FEFC20ED31E681708F055C0862F21
:1006900090E0FC0173E0EE0FFF1F7A95E1F7880F01
:1006A000991FE80FF91FEC0DFD1D8581882309F4C2
:1006B00043C00C2DFD2C802F9F2D65EF0E94EF0075
:1006C00090E08F7190700297B4F78EE08983812F4C
:1006D00090E0FC0153E0EE0FFF1F5A95E1F7880F01
:1006E000991FE80FF91F3696EC0DFD1DDE011296DD
:1006F0009E01255F3F4F81918D93A217B307D9F7D4
:10070000BB86F60184818C878F5F8483AD869E864D
:10071000EF86802F9F2D66E30E940B01802F9F2D77
:100720006FE7AE014F5F5F4F2FE00E949000802F78
:100730009F2D65E30E940B012F960FB6F894DEBF44
:100740000FBECDBFCF91DF911F910F91FF90EF9022
:10075000DF90CF90BF90AF909F900895EF920F934E
:1007600047E020E000E0EE240E9422030F91EF908A
:100770000895EF920F93342F522FE02E43E0232F52
:10078000052F0E9422030F91EF900895BF92CF9200
:10079000DF92EF92FF920F931F93DF93CF9300D0DE
:1007A0000F92CDB7DEB76C01B62E842F402F198281
:1007B0001A821B82622F9E012F5F3F4F8E010E5FB8
:1007C0001F4FE3E0EE2EF12CEC0EFD1E0E945A01AD
:1007D000C6016B2D45E029810A81EB800E9422032E
:1007E0000F900F900F90CF91DF911F910F91FF907D
:1007F000EF90DF90CF90BF900895BF92CF92DF929D
:10080000EF92FF920F931F93DF93CF9300D00F923D
:10081000CDB7DEB76C01B62E842F402F19821A8215
:100820001B82622F9E012F5F3F4F8E010E5F1F4F75
:10083000F3E0EF2EF12CEC0EFD1E0E945A01C601D2
:100840006B2D43E029810A81EB800E9422030F90E7
:100850000F900F90CF91DF911F910F91FF90EF902C
:10086000DF90CF90BF9008954F925F926F927F92EA
:100870008F929F92AF92BF92CF92DF92EF92FF92B0
:100880000F931F93DF93CF93CDB7DEB72F970FB69C
:10089000F894DEBF0FBECDBF7C0120E030E0DC016C
:1008A000AF5BBF4F07C0119201968A309105D9F70F
:1008B0002F5F3F4F8C9190E0281739078CF4F90196
:1008C000EE0FFF1FC90113E0880F991F1A95E1F77A
:1008D000E80FF91F3596EE0DFF1D80E090E0E3CFA5
:1008E00082E490E0E80EF91EF70110828EEB9FEF94
:1008F000E80EF91E5701C70166E30E940B01C7010C
:100900006BEF40E00E94CB0000E010E0C82EDD2439
:1009100007C0C5016FEB40E00E94CB000F5F1F4F87
:100920000C151D05B4F30E94E90B3B014C012E018F
:100930000894411C511C52C0C50164E30E940B0184
:100940006AE070E080E090E00E94F70BC5016BEF79
:1009500040E00E94CB008131B8F1C5016FEB40E06F
:100960000E94CB008E30E1F4C5016FEFA2012EE0B2
:100970000E9490008A85833021F0853011F0873005
:1009800021F4C701B2010E949802C5016FEB40E05B
:100990000E94CB00C5016FEB40E00E94CB0014C069
:1009A000C5016BEF40E00E94CB0000E010E0C82ED4
:1009B000DD2407C0C5016FEB40E00E94CB000F5F54
:1009C0001F4F0C151D05B4F3C50166E30E940B0112
:1009D00062E070E080E090E00E94F70B0E94E90B7B
:1009E00066197709880999096858734180409040D1
:1009F00008F4A2CFC50166E30E940B01C5016BEFAD
:100A000040E00E94CB0000E010E0E82EFF2407C089
:100A1000C5016FEB40E00E94CB000F5F1F4F0E152A
:100A20001F05B4F32F960FB6F894DEBF0FBECDBFEF
:100A3000CF91DF911F910F91FF90EF90DF90CF90BA
:100A4000BF90AF909F908F907F906F905F904F90EE
:100A500008950F931F93182F092F0E943701812F9C
:100A6000902F0E940E01812F902F0E940E01812F46
:100A7000902F6BE049E00E94CB00812F902F6CE01B
:100A800040E00E94CB00812F902F6DE04DE50E9449
:100A9000CB00812F902F6EE043E90E94CB00812F85
:100AA000902F6FE041EB0E94CB00812F902F60E1EF
:100AB0004DE20E94CB00812F902F61E14BE30E9419
:100AC000CB00812F902F62E143E70E94CB00812F62
:100AD000902F63E142E20E94CB00812F902F64E1CE
:100AE00048EF0E94CB00812F902F6AE043E00E94E4
:100AF000CB00812F902F65E140E00E94CB00812F39
:100B0000902F61E246EB0E94CB00812F902F62E292
:100B100040E10E94CB00812F902F68E148E10E94C4
:100B2000CB00812F902F69E14DE10E94CB00812FF6
:100B3000902F6AE14CE10E94CB00812F902F6BE156
:100B400047EC0E94CB00812F902F6CE140E00E9487
:100B5000CB00812F902F6DE142EB0E94CB00812FC3
:100B6000902F63E24AEE0E94CB00812F902F64E227
:100B70004AE00E94CB00812F902F65E240E00E9466
:100B8000CB00812F902F66E241E10E94CB00812FA4
:100B9000902F6CE248E80E94CB00812F902F6DE2ED
:100BA00041E30E94CB00812F902F6EE24BE00E9428
:100BB000CB00812F902F60E046E00E94CB00812F78
:100BC000902F62E041E00E94CB00812F902F67E0E0
:100BD00044E00E94CB00812F902F68E045E40E9402
:100BE000CB00812F902F69E040E00E94CB00812F45
:100BF000902F66E04FEF0E94CB00812F902F63E093
:100C00004DE00E94CB00812F902F6EE349EA0E94B5
:100C1000CB00812F902F66E30E940B01812F902F34
:100C200066E30E940B01812F902F69E30E940B0164
:100C3000812F902F66E30E940B011F910F91089561
:100C40000E948F0008950F93CF93DF93EC010E94D1
:100C500087001C8225968CE3FE0111928A95E9F7A4
:100C60002597FE01EF5BFF4F86E08083CE5BDF4F71
:100C70001882C254D04020E030E007C01D92019697
:100C80008A309105D9F72F5F3F4F808190E0281778
:100C900039078CF4D901AA0FBB1FC90143E0880FA3
:100CA000991F4A95E1F7A80FB91F1596AC0FBD1F04
:100CB00080E090E0E3CFDF91CF910F910895403332
:100CC00024F04A3314F4405301C040E080332CF048
:100CD0008A331CF4982F905301C090E0603324F0C5
:100CE0006A3314F4605301C060E084E6989FC00149
:100CF0001124480F8AE0689FC0011124840F0895D1
:100D00000F938130910561F46F5F7F4F91F48AE713
:100D100093E06AE04DE02BE00CE00E94230609C05E
:100D2000892B39F46F5F7F4F21F48AE793E00E94AB
:100D300020060F91089580E090E06FEF7FEF0E9412
:100D40008006089581E090E06FEF7FEF0E948006BB
:100D500008951F93CF93DF93E8ECF3E0119283E0C3
:100D6000E13EF807D9F7C0E0D0E081EE93E00E94C1
:100D7000EE098823D1F381EE93E00E94EB09182F4E
:100D80008091C703882329F081EE93E0612F0E94B0
:100D9000F609FE01E853FC4F10831D3031F01A3084
:100DA00021F02196C831D10504F3DF91CF911F9135
:100DB00008950F931F93CF93DF9300E010E038C0A6
:100DC0008AE793E0602F4DEB53E00E9433028823C3
:100DD00069F181EE93E060E071E00E94FE0981EE2E
:100DE00093E0B8010E94F70A81EE93E062E071E0BF
:100DF0000E94FE09CDEBD3E0499150E060E070E045
:100E000081EE93E020E130E00E94FF0A81EE93E062
:100E100065E071E00E94FE0983E0C63CD80761F7F7
:100E200081EE93E068E071E00E942D0A0F5F1F4F92
:100E30008AE793E00E94DD0190E0081719070CF49F
:100E4000BFCFDF91CF911F910F910895EF92FF9245
:100E50000F931F930E94A9068091C8038C3609F452
:100E60000EC18D369CF4863609F442C187363CF4B7
:100E70008F3309F4FFC0853609F06AC249C188364C
:100E800009F4A5C0893609F063C2CFC0823709F4DE
:100E90006BC083373CF48E3609F4F6C0813709F015
:100EA00057C207C0833709F444C1873709F050C2DD
:100EB00060C081EE93E069E071E00E942D0A81EE4E
:100EC00093E061E271E00E942D0A81EE93E066E317
:100ED00071E00E942D0A81EE93E060E471E00E94CF
:100EE0002D0A81EE93E06DE971E00E942D0A81EEFA
:100EF00093E066EE71E00E942D0A81EE93E065EFCB
:100F000071E00E942D0A81EE93E06CE272E00E9493
:100F10002D0A81EE93E06AE472E00E942D0A81EED0
:100F200093E06DE572E00E942D0A81EE93E061E8A6
:100F300072E00E942D0A81EE93E062EB72E00E9463
:100F40002D0A81EE93E067EF72E00E942D0A81EE98
:100F500093E068E071E00E942D0A81EE93E06AE080
:100F600073E00E942D0A86C08AE793E00E9429055B
:100F700081C06091C903603334F06A3324F420EDFA
:100F8000E22EE60E01C0EE248091CB036091CC03EB
:100F90004091CD030E945F06F82E8091CF036091AF
:100FA000D0034091D1030E945F06182F8091D30394
:100FB0006091D4034091D5030E945F06082F8AE711
:100FC00093E06E2D4F2D212F0E94FD0353C06091A1
:100FD000C903603334F06A3324F490EDE92EE60E51
:100FE00001C0EE248091CB036091CC034091CD03EE
:100FF0000E945F06F82E8091CF036091D00340914C
:10100000D1030E945F06182F8091D3036091D4030F
:101010004091D5030E945F06082F8AE793E06E2D6A
:101020004F2D212F0E94B90325C08091C70388232B
:1010300029F081EE93E061E573E004C081EE93E076
:1010400069E573E00E942D0A8AE793E00E94DD01C2
:10105000482F50E060E070E081EE93E020E130E066
:101060000E94FF0A81EE93E062E673E00E942D0A7F
:101070000E94D90681EE93E06FE473E06DC18AE7C8
:1010800093E00E943404F6CF6091C903603334F0DA
:101090006A3324F480EDE82EE60E01C0EE24809140
:1010A000CB036091CC034091CD030E945F06F82EE4
:1010B0008091CF036091D0034091D1030E945F06DD
:1010C000182F8091D3036091D4034091D5030E94DF
:1010D0005F06082F8AE793E06E2D4F2D212F0E9487
:1010E000C6036AE070E080E090E00E94F70BC2CF98
:1010F0006091C903603324F06A3314F4605301C073
:1011000060E08AE793E00E94AE031092C603B2CF7C
:101110008091C903803324F08A3314F4805319F486
:101120001092C703A7CF813009F0A4CF8093C703E3
:10113000A1CF9091C9038091CA0380332CF08A33E8
:101140001CF4282F205301C020E090332CF09A3358
:101150001CF4892F805301C080E08295807F820F2C
:101160008093BD039091CB038091CC0380332CF00E
:101170008A331CF4282F205301C020E090332CF038
:101180009A331CF4892F805301C080E08295807FC0
:10119000820F8093BE039091CD038091CE03803364
:1011A0002CF08A331CF4282F205301C020E0903308
:1011B0002CF09A331CF4892F805301C080E0829573
:1011C000807F820F8093BF039091CF038091D003E3
:1011D00080332CF08A331CF4282F205301C020E0E8
:1011E00090332CF09A331CF4892F805301C080E097
:1011F0008295807F820F8093C0039091D10380916C
:10120000D20380332CF08A331CF4282F205301C0E2
:1012100020E090332CF09A331CF4892F805301C0C6
:1012200080E08295807F820F8093C1039091D303E9
:101230008091D40380332CF08A331CF4282F205360
:1012400001C020E090332CF09A331CF4892F805396
:1012500001C080E08295807F820F8093C2039091CD
:10126000D5038091D60380332CF08A331CF4282FC9
:10127000205301C020E090332CF09A331CF4892FC6
:10128000805301C080E08295807F820F8093C303EA
:101290009091D7038091D80380332CF08A331CF4CB
:1012A000282F205301C020E090332CF09A331CF4F7
:1012B000892F805301C080E08295807F820F8093C8
:1012C000C4039091D9038091DA0380332CF08A33E0
:1012D0001CF4282F205301C020E090332CF09A33C7
:1012E0001CF4892F805301C080E08295807F820F9B
:1012F0008093C5039091DB038091DC0380332CF055
:101300008A331CF4282F205301C020E090332CF0A6
:101310009A331CF4892F805301C080E08295807F2E
:10132000820F8093C6038AE793E06DEB73E00E941F
:10133000E201482F552747FD5095662757FD6095D8
:10134000762F81EE93E02AE030E00E94140B92CEDB
:1013500081EE93E069E673E00E942D0A1F910F91E0
:10136000FF90EF900895EF92FF920F931F9331EE4D
:10137000E32E33E0F32EC70140E855E260E070E071
:101380000E94F1090AE713E0C8010E942905C8017B
:101390000E946C02C8016BE673E00E94E201C70183
:1013A0006FE473E00E942D0A1F910F91FF90EF9060
:1013B00008950E942F0C0E94B3090E942607FDCFBA
:1013C00088E793E09093E2038093E1030895862FEA
:1013D0000E94570D08950E94700D08950E945F0DA0
:1013E0000895CB01BA010E941E0D0895DC01ED9114
:1013F000FC910190F081E02D099508950F931F93C2
:10140000CF93DF938C01EB0109C02196D801ED91B8
:10141000FC910190F081E02DC80109956881662357
:10142000A1F7DF91CF911F910F9108950F931F9313
:101430008C01DC01ED91FC910190F081E02D6DE0DB
:101440000995D801ED91FC910190F081E02DC80142
:101450006AE009951F910F9108950F931F938C01D6
:101460000E94FE09C8010E94160A1F910F9108955B
:101470002F923F924F925F926F927F928F929F92A4
:10148000AF92BF92CF92DF92EF92FF920F931F9392
:10149000DF93CF93CDB7DEB7A0970FB6F894DEBF3A
:1014A0000FBECDBF1C016A017B01411551056105CD
:1014B000710549F4DC01ED91FC910190F081E02D82
:1014C00060E3099554C0882499245401422E552480
:1014D0006624772401E010E00C0F1D1F080D191D74
:1014E000C701B601A30192010E94DF0DF8016083DC
:1014F0000894811C911CA11CB11CC701B601A30159
:1015000092010E94DF0DC901DA016C017D01C11455
:10151000D104E104F104F1F681E0E82EF12CEC0EA7
:10152000FD1EE80CF91C3E010894611C711CD501DC
:10153000C4010197A109B1096C01C818D90814C0E8
:10154000F601EE0DFF1D60816A3010F4605D01C090
:10155000695CD101ED91FC910190F081E02DC10118
:1015600009950894E108F1086E147F0449F7A096E4
:101570000FB6F894DEBF0FBECDBFCF91DF911F91A4
:101580000F91FF90EF90DF90CF90BF90AF909F9022
:101590008F907F906F905F904F903F902F90089525
:1015A000EF92FF920F931F93CF93DF93EC017A0199
:1015B0008B0177FF0FC0E881F9810190F081E02D68
:1015C0006DE2099510950095F094E094E11CF11CF2
:1015D000011D111DCE01B801A7012AE00E94380AA1
:1015E000DF91CF911F910F91FF90EF900895AB0184
:1015F000662757FD6095762F0E94D00A0895DC017A
:101600002115310541F4ED91FC910190F081E02D1F
:10161000642F099508952A30310519F40E94D00AE3
:1016200008950E94380A08950F931F938C010E9419
:10163000FF0AC8010E94160A1F910F9108951F9278
:101640000F920FB60F9211242F933F934F935F93F6
:101650006F937F938F939F93AF93BF93EF93FF937A
:101660008091E3039091E403892B29F0E091E30357
:10167000F091E4030995FF91EF91BF91AF919F9194
:101680008F917F916F915F914F913F912F910F902B
:101690000FBE0F901F9018951F920F920FB60F92CA
:1016A00011242F933F934F935F936F937F938F9367
:1016B0009F93AF93BF93EF93FF938091E503909136
:1016C000E603892B29F0E091E503F091E603099503
:1016D000FF91EF91BF91AF919F918F917F916F910A
:1016E0005F914F913F912F910F900FBE0F901F90E0
:1016F00018951F920F920FB60F9211242F938F936C
:101700009F93AF93BF938091E7039091E803A091DB
:10171000E903B091EA030196A11DB11D8093E7038F
:101720009093E803A093E903B093EA038091EB035D
:101730009091EC03A091ED03B091EE038050904C9A
:10174000AF4FBF4F8093EB039093EC03A093ED0357
:10175000B093EE0327C08091EB039091EC03A0912E
:10176000ED03B091EE0380589E43A040B0408093BB
:10177000EB039093EC03A093ED03B093EE03809101
:10178000EF039091F003A091F103B091F203019661
:10179000A11DB11D8093EF039093F003A093F1037B
:1017A000B093F2038091EB039091EC03A091ED03D1
:1017B000B091EE0381589E43A040B04060F6BF91C7
:1017C000AF919F918F912F910F900FBE0F901F900F
:1017D00018958FB7F8942091EF033091F003409162
:1017E000F1035091F2038FBFB901CA010895EF923E
:1017F000FF920F931F937B018C018FB7F894409158
:10180000EF035091F0036091F1037091F2038FBFE9
:101810002FB7F8948091EF039091F003A091F1031A
:10182000B091F2032FBF841B950BA60BB70BE816E4
:10183000F9060A071B0760F71F910F91FF90EF90C1
:101840000895019759F0FC01EE0FFF1FEE0FFF1FE7
:1018500032978FB7F8943197F1F78FBF0895789446
:1018600084B5826084BD84B5816084BD85B58260A5
:1018700085BD85B5816085BDEEE6F0E08081816043
:101880008083E1E8F0E080818260808380818160F4
:101890008083E0E8F0E0808181608083E1EBF0E02C
:1018A000808184608083E0EBF0E0808181608083D0
:1018B000EAE7F0E0808184608083808182608083B9
:1018C0008081816080838081806880831092C100E4
:1018D0000895282F30E0C90185579F4FFC0194914E
:1018E00029583F4FF9018491882381F0E82FF0E0D7
:1018F000E859FF4FE491F0E0662329F48081909548
:101900008923808308958081892B80830895482FBF
:1019100050E0CA0181569F4FFC012491CA018557AE
:101920009F4FFC01949149585F4FFA013491332342
:10193000C1F1222331F1233021F4809180008F778F
:1019400005C0243031F4809180008F7D8093800029
:1019500018C0213019F484B58F7704C0223021F4E7
:1019600084B58F7D84BD0DC0263021F48091B000F8
:101970008F7705C0273029F48091B0008F7D809348
:10198000B000E32FF0E0E359FF4FE491F0E066236D
:1019900029F4808190958923808308958081892B03
:1019A00080830895482F50E0CA0181569F4FFC0163
:1019B0002491CA0185579F4FFC01949149585F4F6C
:1019C000FA013491332319F420E030E035C02223AA
:1019D00031F1233021F4809180008F7705C02430CD
:1019E00031F4809180008F7D8093800018C0213079
:1019F00019F484B58F7704C0223021F484B58F7D2B
:101A000084BD0DC0263021F48091B0008F7705C0D1
:101A1000273029F48091B0008F7D8093B000E32FB0
:101A2000F0E0EE58FF4FE491F0E0808120E030E0FC
:101A3000892311F021E030E0C9010895EF92FF926F
:101A40000F931F937B018C0122E030E040E050E0D7
:101A50000E94010E205C3D4B404F5F4FCA01B9010F
:101A6000A80197010E94010EC901DA010197A1099D
:101A7000B109292F3A2F4B2F552747FD5A9501962B
:101A8000A11DB11D2093C50081508093C400E1ECDD
:101A9000F0E08081806180838081886080838081A4
:101AA000806880831F910F91FF90EF900895982F89
:101AB0008091C00085FFFCCF9093C600089580916F
:101AC000F3039091F40380589F4F2091F5033091D8
:101AD000F603821B930B60E870E00E94CC0D089522
:101AE0004091F5035091F6038091F3039091F40334
:101AF0008417950719F42FEF3FEF0FC0FA01E95053
:101B0000FC4F2081CA01019660E870E00E94CC0D74
:101B10009093F6038093F50330E0C90108951F9276
:101B20000F920FB60F9211242F933F934F935F9311
:101B30006F937F938F939F93AF93BF93EF93FF9395
:101B40004091C600E091F303F091F403CF010196B8
:101B500060E870E00E94CC0D9C018091F5039091AB
:101B6000F6032817390739F0E950FC4F40833093CA
:101B7000F4032093F303FF91EF91BF91AF919F91F5
:101B80008F917F916F915F914F913F912F910F9026
:101B90000FBE0F901F90189597FB092E07260AD0AD
:101BA00077FD04D049D006D000201AF470956195D5
:101BB0007F4F0895F6F7909581959F4F0895A1E284
:101BC0001A2EAA1BBB1BFD010DC0AA1FBB1FEE1FB7
:101BD000FF1FA217B307E407F50720F0A21BB30B02
:101BE000E40BF50B661F771F881F991F1A9469F77E
:101BF00060957095809590959B01AC01BD01CF01DA
:101C0000089597FB092E05260ED057FD04D0D7DF87
:101C10000AD0001C38F450954095309521953F4FDF
:101C20004F4F5F4F0895F6F79095809570956195A9
:101C30007F4F8F4F9F4F0895AA1BBB1B51E107C0D9
:101C4000AA1FBB1FA617B70710F0A61BB70B881F4C
:101C5000991F5A95A9F780959095BC01CD010895DB
:101C6000EE0FFF1F0590F491E02D099410E0C8EBF2
:101C7000D0E004C0FE010E94320E2296CA3BD1077A
:061C8000C9F7F894FFCF44
:101C86005B005D20002C2000002D2D2076616C6904
:101C96006420636F6D6D616E647320617265203AB6
:101CA6000071203A20746869732068656C7020732F
:101CB600637265656E0072203A2072657365740002
:101CC600776C2D7272722D6767672D626262203A99
:101CD60020722C206720616E64206220617265206C
:101CE6006E756D626572732030303020746F2032ED
:101CF60035352E204578616D706C65202277303041
:101D0600302D3235352D3030302220666F7220620C
:101D1600726967687420677265656E2E00686C2D3F
:101D26006868682D7373732D696969203A20682C79
:101D3600207320616E64206920617265206E756D66
:101D4600626572732030303020746F203235352E44
:101D5600204E6F206578616D706C6520666F72200D
:101D66006E6F772E2E0069203A207072696E74208D
:101D7600696E666F00616E6E6E203A2073656C65E3
:101D86006374206C616D70206E2E204578616D70D5
:101D96006C652022613030312220746F2073656CAF
:101DA600656374206C616D7020312E006E6C2D722F
:101DB60072722D6767672D626262203A20747572AF
:101DC6006E206C616D70206F6E00666C203A207418
:101DD60075726E206C616D70206F66660065652099
:101DE6003A2065203D2030206563686F206F666667
:101DF6002C2065203D2031206563686F206F6E2E94
:101E0600006C203A206C697374656E20666F7220D0
:101E160061647265737365732E205573652049205E
:101E2600746F206C69737420616472657373657373
:101E36002E007361616262636364646565666667EA
:101E46006768686969203A2073746F7265206164F7
:101E56007265737320696E20612E2E692E203920DB
:101E66006E756D62657273206173203220646967D6
:101E7600697420686578003F203A2064756D6D7935
:101E860020636F6D6D616E642E00612072657370E4
:101E96006F6E7365206F6620223F22206D65616E2E
:101EA6007320696E76616C696420636F6D6D616E17
:101EB600642E20222122206D65616E7320636F6D72
:101EC6006D616E642065786563757465642E0021A6
:101ED600006563686F206F6E006563686F206F66CC
:101EE6006600206C616D7073003F00AFCDC185C583
:0A1EF600577FCD1100000000E7093E
:00000001FF
